{
  "contractName": "SovStake",
  "abi": [
    {
      "inputs": [],
      "stateMutability": "nonpayable",
      "type": "constructor"
    },
    {
      "anonymous": false,
      "inputs": [
        {
          "indexed": false,
          "internalType": "address",
          "name": "token",
          "type": "address"
        },
        {
          "indexed": false,
          "internalType": "uint256",
          "name": "apr",
          "type": "uint256"
        }
      ],
      "name": "APRChanged",
      "type": "event"
    },
    {
      "anonymous": false,
      "inputs": [
        {
          "indexed": true,
          "internalType": "address",
          "name": "owner",
          "type": "address"
        },
        {
          "indexed": true,
          "internalType": "address",
          "name": "spender",
          "type": "address"
        },
        {
          "indexed": false,
          "internalType": "uint256",
          "name": "value",
          "type": "uint256"
        }
      ],
      "name": "Approval",
      "type": "event"
    },
    {
      "anonymous": false,
      "inputs": [
        {
          "indexed": true,
          "internalType": "address",
          "name": "previousOwner",
          "type": "address"
        },
        {
          "indexed": true,
          "internalType": "address",
          "name": "newOwner",
          "type": "address"
        }
      ],
      "name": "OwnershipTransferred",
      "type": "event"
    },
    {
      "anonymous": false,
      "inputs": [
        {
          "indexed": false,
          "internalType": "address",
          "name": "staker",
          "type": "address"
        },
        {
          "indexed": false,
          "internalType": "uint256",
          "name": "rewards",
          "type": "uint256"
        }
      ],
      "name": "RewardsSent",
      "type": "event"
    },
    {
      "anonymous": false,
      "inputs": [
        {
          "indexed": false,
          "internalType": "address",
          "name": "token",
          "type": "address"
        }
      ],
      "name": "TokenAdded",
      "type": "event"
    },
    {
      "anonymous": false,
      "inputs": [
        {
          "indexed": false,
          "internalType": "address",
          "name": "staker",
          "type": "address"
        },
        {
          "indexed": false,
          "internalType": "uint256",
          "name": "quantity",
          "type": "uint256"
        }
      ],
      "name": "TokenStaked",
      "type": "event"
    },
    {
      "anonymous": false,
      "inputs": [
        {
          "indexed": false,
          "internalType": "address",
          "name": "token",
          "type": "address"
        },
        {
          "indexed": false,
          "internalType": "bool",
          "name": "enabled",
          "type": "bool"
        }
      ],
      "name": "TokenStatusChanged",
      "type": "event"
    },
    {
      "anonymous": false,
      "inputs": [
        {
          "indexed": false,
          "internalType": "address",
          "name": "staker",
          "type": "address"
        }
      ],
      "name": "TokenWithdrawn",
      "type": "event"
    },
    {
      "anonymous": false,
      "inputs": [
        {
          "indexed": true,
          "internalType": "address",
          "name": "from",
          "type": "address"
        },
        {
          "indexed": true,
          "internalType": "address",
          "name": "to",
          "type": "address"
        },
        {
          "indexed": false,
          "internalType": "uint256",
          "name": "value",
          "type": "uint256"
        }
      ],
      "name": "Transfer",
      "type": "event"
    },
    {
      "inputs": [
        {
          "internalType": "address",
          "name": "owner",
          "type": "address"
        },
        {
          "internalType": "address",
          "name": "spender",
          "type": "address"
        }
      ],
      "name": "allowance",
      "outputs": [
        {
          "internalType": "uint256",
          "name": "",
          "type": "uint256"
        }
      ],
      "stateMutability": "view",
      "type": "function",
      "constant": true
    },
    {
      "inputs": [
        {
          "internalType": "address",
          "name": "spender",
          "type": "address"
        },
        {
          "internalType": "uint256",
          "name": "amount",
          "type": "uint256"
        }
      ],
      "name": "approve",
      "outputs": [
        {
          "internalType": "bool",
          "name": "",
          "type": "bool"
        }
      ],
      "stateMutability": "nonpayable",
      "type": "function"
    },
    {
      "inputs": [
        {
          "internalType": "address",
          "name": "account",
          "type": "address"
        }
      ],
      "name": "balanceOf",
      "outputs": [
        {
          "internalType": "uint256",
          "name": "",
          "type": "uint256"
        }
      ],
      "stateMutability": "view",
      "type": "function",
      "constant": true
    },
    {
      "inputs": [],
      "name": "decimals",
      "outputs": [
        {
          "internalType": "uint8",
          "name": "",
          "type": "uint8"
        }
      ],
      "stateMutability": "view",
      "type": "function",
      "constant": true
    },
    {
      "inputs": [
        {
          "internalType": "address",
          "name": "spender",
          "type": "address"
        },
        {
          "internalType": "uint256",
          "name": "subtractedValue",
          "type": "uint256"
        }
      ],
      "name": "decreaseAllowance",
      "outputs": [
        {
          "internalType": "bool",
          "name": "",
          "type": "bool"
        }
      ],
      "stateMutability": "nonpayable",
      "type": "function"
    },
    {
      "inputs": [
        {
          "internalType": "address",
          "name": "spender",
          "type": "address"
        },
        {
          "internalType": "uint256",
          "name": "addedValue",
          "type": "uint256"
        }
      ],
      "name": "increaseAllowance",
      "outputs": [
        {
          "internalType": "bool",
          "name": "",
          "type": "bool"
        }
      ],
      "stateMutability": "nonpayable",
      "type": "function"
    },
    {
      "inputs": [],
      "name": "name",
      "outputs": [
        {
          "internalType": "string",
          "name": "",
          "type": "string"
        }
      ],
      "stateMutability": "view",
      "type": "function",
      "constant": true
    },
    {
      "inputs": [],
      "name": "owner",
      "outputs": [
        {
          "internalType": "address",
          "name": "",
          "type": "address"
        }
      ],
      "stateMutability": "view",
      "type": "function",
      "constant": true
    },
    {
      "inputs": [],
      "name": "renounceOwnership",
      "outputs": [],
      "stateMutability": "nonpayable",
      "type": "function"
    },
    {
      "inputs": [],
      "name": "symbol",
      "outputs": [
        {
          "internalType": "string",
          "name": "",
          "type": "string"
        }
      ],
      "stateMutability": "view",
      "type": "function",
      "constant": true
    },
    {
      "inputs": [],
      "name": "totalSupply",
      "outputs": [
        {
          "internalType": "uint256",
          "name": "",
          "type": "uint256"
        }
      ],
      "stateMutability": "view",
      "type": "function",
      "constant": true
    },
    {
      "inputs": [
        {
          "internalType": "address",
          "name": "recipient",
          "type": "address"
        },
        {
          "internalType": "uint256",
          "name": "amount",
          "type": "uint256"
        }
      ],
      "name": "transfer",
      "outputs": [
        {
          "internalType": "bool",
          "name": "",
          "type": "bool"
        }
      ],
      "stateMutability": "nonpayable",
      "type": "function"
    },
    {
      "inputs": [
        {
          "internalType": "address",
          "name": "sender",
          "type": "address"
        },
        {
          "internalType": "address",
          "name": "recipient",
          "type": "address"
        },
        {
          "internalType": "uint256",
          "name": "amount",
          "type": "uint256"
        }
      ],
      "name": "transferFrom",
      "outputs": [
        {
          "internalType": "bool",
          "name": "",
          "type": "bool"
        }
      ],
      "stateMutability": "nonpayable",
      "type": "function"
    },
    {
      "inputs": [
        {
          "internalType": "address",
          "name": "newOwner",
          "type": "address"
        }
      ],
      "name": "transferOwnership",
      "outputs": [],
      "stateMutability": "nonpayable",
      "type": "function"
    },
    {
      "inputs": [
        {
          "internalType": "address",
          "name": "token",
          "type": "address"
        },
        {
          "internalType": "string",
          "name": "name",
          "type": "string"
        },
        {
          "internalType": "address",
          "name": "aggregator",
          "type": "address"
        }
      ],
      "name": "addStakableToken",
      "outputs": [],
      "stateMutability": "nonpayable",
      "type": "function"
    },
    {
      "inputs": [
        {
          "internalType": "address",
          "name": "token",
          "type": "address"
        },
        {
          "internalType": "bool",
          "name": "status",
          "type": "bool"
        }
      ],
      "name": "updateTokenStatus",
      "outputs": [],
      "stateMutability": "nonpayable",
      "type": "function"
    },
    {
      "inputs": [],
      "name": "getTokenArray",
      "outputs": [
        {
          "internalType": "address[]",
          "name": "",
          "type": "address[]"
        }
      ],
      "stateMutability": "view",
      "type": "function",
      "constant": true
    },
    {
      "inputs": [
        {
          "internalType": "address",
          "name": "token",
          "type": "address"
        }
      ],
      "name": "getTokenName",
      "outputs": [
        {
          "internalType": "string",
          "name": "",
          "type": "string"
        }
      ],
      "stateMutability": "view",
      "type": "function",
      "constant": true
    },
    {
      "inputs": [
        {
          "internalType": "address",
          "name": "token",
          "type": "address"
        }
      ],
      "name": "getTokenStatus",
      "outputs": [
        {
          "internalType": "bool",
          "name": "",
          "type": "bool"
        }
      ],
      "stateMutability": "view",
      "type": "function",
      "constant": true
    },
    {
      "inputs": [
        {
          "internalType": "address",
          "name": "token",
          "type": "address"
        }
      ],
      "name": "getTokenAggregator",
      "outputs": [
        {
          "internalType": "address",
          "name": "",
          "type": "address"
        }
      ],
      "stateMutability": "view",
      "type": "function",
      "constant": true
    },
    {
      "inputs": [
        {
          "internalType": "address",
          "name": "token",
          "type": "address"
        }
      ],
      "name": "getAPR",
      "outputs": [
        {
          "internalType": "uint256",
          "name": "",
          "type": "uint256"
        }
      ],
      "stateMutability": "view",
      "type": "function",
      "constant": true
    },
    {
      "inputs": [
        {
          "internalType": "address",
          "name": "token",
          "type": "address"
        }
      ],
      "name": "getTokenInfo",
      "outputs": [
        {
          "internalType": "string",
          "name": "name",
          "type": "string"
        },
        {
          "internalType": "address",
          "name": "aggregator",
          "type": "address"
        },
        {
          "internalType": "bool",
          "name": "enabled",
          "type": "bool"
        },
        {
          "internalType": "uint256",
          "name": "apr",
          "type": "uint256"
        },
        {
          "internalType": "uint256",
          "name": "tvl",
          "type": "uint256"
        }
      ],
      "stateMutability": "view",
      "type": "function",
      "constant": true
    },
    {
      "inputs": [
        {
          "internalType": "address",
          "name": "token",
          "type": "address"
        },
        {
          "internalType": "uint256",
          "name": "value",
          "type": "uint256"
        }
      ],
      "name": "setAPR",
      "outputs": [],
      "stateMutability": "nonpayable",
      "type": "function"
    },
    {
      "inputs": [
        {
          "internalType": "address",
          "name": "token",
          "type": "address"
        }
      ],
      "name": "getStakeDate",
      "outputs": [
        {
          "internalType": "uint256",
          "name": "",
          "type": "uint256"
        }
      ],
      "stateMutability": "view",
      "type": "function",
      "constant": true
    },
    {
      "inputs": [
        {
          "internalType": "address",
          "name": "token",
          "type": "address"
        },
        {
          "internalType": "uint256",
          "name": "quantity",
          "type": "uint256"
        }
      ],
      "name": "stake",
      "outputs": [],
      "stateMutability": "nonpayable",
      "type": "function"
    },
    {
      "inputs": [
        {
          "internalType": "address",
          "name": "token",
          "type": "address"
        }
      ],
      "name": "withdraw",
      "outputs": [],
      "stateMutability": "nonpayable",
      "type": "function"
    },
    {
      "inputs": [
        {
          "internalType": "address",
          "name": "token",
          "type": "address"
        }
      ],
      "name": "getTVL",
      "outputs": [
        {
          "internalType": "uint256",
          "name": "",
          "type": "uint256"
        }
      ],
      "stateMutability": "view",
      "type": "function",
      "constant": true
    },
    {
      "inputs": [
        {
          "internalType": "address",
          "name": "token",
          "type": "address"
        }
      ],
      "name": "getMyTVL",
      "outputs": [
        {
          "internalType": "uint256",
          "name": "",
          "type": "uint256"
        }
      ],
      "stateMutability": "view",
      "type": "function",
      "constant": true
    },
    {
      "inputs": [
        {
          "internalType": "address",
          "name": "account",
          "type": "address"
        },
        {
          "internalType": "bool",
          "name": "enabled",
          "type": "bool"
        }
      ],
      "name": "updatePrivileged",
      "outputs": [],
      "stateMutability": "nonpayable",
      "type": "function"
    },
    {
      "inputs": [
        {
          "internalType": "address",
          "name": "token",
          "type": "address"
        }
      ],
      "name": "getLatestPrice",
      "outputs": [
        {
          "internalType": "uint256",
          "name": "",
          "type": "uint256"
        }
      ],
      "stateMutability": "view",
      "type": "function",
      "constant": true
    }
  ],
  "bytecode": "0x60806040523480156200001157600080fd5b506040518060400160405280600881526020017f536f76546f6b656e0000000000000000000000000000000000000000000000008152506040518060400160405280600381526020017f534f56000000000000000000000000000000000000000000000000000000000081525081600390805190602001906200009692919062000242565b508060049080519060200190620000af92919062000242565b505050620000d2620000c66200014a60201b60201c565b6200015260201b60201c565b600160066000620000e86200021860201b60201c565b73ffffffffffffffffffffffffffffffffffffffff1673ffffffffffffffffffffffffffffffffffffffff16815260200190815260200160002060006101000a81548160ff0219169083151502179055506301e1338060098190555062000357565b600033905090565b6000600560009054906101000a900473ffffffffffffffffffffffffffffffffffffffff16905081600560006101000a81548173ffffffffffffffffffffffffffffffffffffffff021916908373ffffffffffffffffffffffffffffffffffffffff1602179055508173ffffffffffffffffffffffffffffffffffffffff168173ffffffffffffffffffffffffffffffffffffffff167f8be0079c531659141344cd1fd0a4f28419497f9722a3daafe3b4186f6b6457e060405160405180910390a35050565b6000600560009054906101000a900473ffffffffffffffffffffffffffffffffffffffff16905090565b8280546200025090620002f2565b90600052602060002090601f016020900481019282620002745760008555620002c0565b82601f106200028f57805160ff1916838001178555620002c0565b82800160010185558215620002c0579182015b82811115620002bf578251825591602001919060010190620002a2565b5b509050620002cf9190620002d3565b5090565b5b80821115620002ee576000816000905550600101620002d4565b5090565b600060028204905060018216806200030b57607f821691505b6020821081141562000322576200032162000328565b5b50919050565b7f4e487b7100000000000000000000000000000000000000000000000000000000600052602260045260246000fd5b6147ba80620003676000396000f3fe608060405234801561001057600080fd5b50600436106101da5760003560e01c80636f0fccab11610104578063a457c2d7116100a2578063c75da6a811610071578063c75da6a8146105df578063cf37d74e146105fb578063dd62ed3e14610619578063f2fde38b14610649576101da565b8063a457c2d714610533578063a731a7fc14610563578063a9059cbb14610593578063adc9772e146105c3576101da565b80638da5cb5b116100de5780638da5cb5b146104ab578063900ed178146104c957806395d89b41146104e5578063a3ff31b514610503576101da565b80636f0fccab1461044157806370a0823114610471578063715018a6146104a1576101da565b806323b872dd1161017c5780634389f2171161014b5780634389f217146103bd5780634a848090146103ed57806351cff8d914610409578063668c2e4714610425576101da565b806323b872dd1461030f578063313ce5671461033f578063395093511461035d5780633fe5134a1461038d576101da565b806316345f18116101b857806316345f181461025d57806318160ddd1461028d5780631c5122d9146102ab5780631f69565f146102db576101da565b806306fdde03146101df578063095ea7b3146101fd5780630f40517a1461022d575b600080fd5b6101e7610665565b6040516101f4919061401e565b60405180910390f35b6102176004803603810190610212919061366b565b6106f7565b6040516102249190614003565b60405180910390f35b61024760048036038101906102429190613514565b610715565b604051610254919061435a565b60405180910390f35b61027760048036038101906102729190613514565b610761565b604051610284919061435a565b60405180910390f35b610295610853565b6040516102a2919061435a565b60405180910390f35b6102c560048036038101906102c09190613514565b61085d565b6040516102d2919061435a565b60405180910390f35b6102f560048036038101906102f09190613514565b6108a9565b604051610306959493929190614040565b60405180910390f35b61032960048036038101906103249190613579565b6109d9565b6040516103369190614003565b60405180910390f35b610347610ad1565b6040516103549190614375565b60405180910390f35b6103776004803603810190610372919061366b565b610ada565b6040516103849190614003565b60405180910390f35b6103a760048036038101906103a29190613514565b610b86565b6040516103b4919061435a565b60405180910390f35b6103d760048036038101906103d29190613514565b610c0f565b6040516103e49190613f3d565b60405180910390f35b6104076004803603810190610402919061366b565b610cea565b005b610423600480360381019061041e9190613514565b610e4c565b005b61043f600480360381019061043a91906135c8565b611311565b005b61045b60048036038101906104569190613514565b6113e8565b604051610468919061401e565b60405180910390f35b61048b60048036038101906104869190613514565b61152c565b604051610498919061435a565b60405180910390f35b6104a9611574565b005b6104b36115fc565b6040516104c09190613f3d565b60405180910390f35b6104e360048036038101906104de91906135c8565b611626565b005b6104ed6117c7565b6040516104fa919061401e565b60405180910390f35b61051d60048036038101906105189190613514565b611859565b60405161052a9190614003565b60405180910390f35b61054d6004803603810190610548919061366b565b611921565b60405161055a9190614003565b60405180910390f35b61057d60048036038101906105789190613514565b611a0c565b60405161058a919061435a565b60405180910390f35b6105ad60048036038101906105a8919061366b565b611a95565b6040516105ba9190614003565b60405180910390f35b6105dd60048036038101906105d8919061366b565b611ab3565b005b6105f960048036038101906105f49190613604565b611fd9565b005b61060361261e565b6040516106109190613fe1565b60405180910390f35b610633600480360381019061062e919061353d565b6126ac565b604051610640919061435a565b60405180910390f35b610663600480360381019061065e9190613514565b612733565b005b60606003805461067490614612565b80601f01602080910402602001604051908101604052809291908181526020018280546106a090614612565b80156106ed5780601f106106c2576101008083540402835291602001916106ed565b820191906000526020600020905b8154815290600101906020018083116106d057829003601f168201915b5050505050905090565b600061070b61070461282b565b8484612833565b6001905092915050565b6000600760008373ffffffffffffffffffffffffffffffffffffffff1673ffffffffffffffffffffffffffffffffffffffff168152602001908152602001600020600301549050919050565b600080600760008473ffffffffffffffffffffffffffffffffffffffff1673ffffffffffffffffffffffffffffffffffffffff16815260200190815260200160002060040160009054906101000a900473ffffffffffffffffffffffffffffffffffffffff1673ffffffffffffffffffffffffffffffffffffffff1663feaf968c6040518163ffffffff1660e01b815260040160a06040518083038186803b15801561080c57600080fd5b505afa158015610820573d6000803e3d6000fd5b505050506040513d601f19601f8201168201806040525081019061084491906136d0565b50505091505080915050919050565b6000600254905090565b6000600760008373ffffffffffffffffffffffffffffffffffffffff1673ffffffffffffffffffffffffffffffffffffffff168152602001908152602001600020600201549050919050565b60606000806000806000600760008873ffffffffffffffffffffffffffffffffffffffff1673ffffffffffffffffffffffffffffffffffffffff1681526020019081526020016000209050806000018160010160009054906101000a900473ffffffffffffffffffffffffffffffffffffffff168260010160149054906101000a900460ff168360020154846003015484805461094590614612565b80601f016020809104026020016040519081016040528092919081815260200182805461097190614612565b80156109be5780601f10610993576101008083540402835291602001916109be565b820191906000526020600020905b8154815290600101906020018083116109a157829003601f168201915b50505050509450955095509550955095505091939590929450565b60006109e68484846129fe565b6000600160008673ffffffffffffffffffffffffffffffffffffffff1673ffffffffffffffffffffffffffffffffffffffff1681526020019081526020016000206000610a3161282b565b73ffffffffffffffffffffffffffffffffffffffff1673ffffffffffffffffffffffffffffffffffffffff16815260200190815260200160002054905082811015610ab1576040517f08c379a0000000000000000000000000000000000000000000000000000000008152600401610aa8906141fa565b60405180910390fd5b610ac585610abd61282b565b858403612833565b60019150509392505050565b60006012905090565b6000610b7c610ae761282b565b848460016000610af561282b565b73ffffffffffffffffffffffffffffffffffffffff1673ffffffffffffffffffffffffffffffffffffffff16815260200190815260200160002060008873ffffffffffffffffffffffffffffffffffffffff1673ffffffffffffffffffffffffffffffffffffffff16815260200190815260200160002054610b779190614446565b612833565b6001905092915050565b6000600760008373ffffffffffffffffffffffffffffffffffffffff1673ffffffffffffffffffffffffffffffffffffffff16815260200190815260200160002060050160003373ffffffffffffffffffffffffffffffffffffffff1673ffffffffffffffffffffffffffffffffffffffff168152602001908152602001600020549050919050565b60008073ffffffffffffffffffffffffffffffffffffffff168273ffffffffffffffffffffffffffffffffffffffff161415610c80576040517f08c379a0000000000000000000000000000000000000000000000000000000008152600401610c779061427a565b60405180910390fd5b600760008373ffffffffffffffffffffffffffffffffffffffff1673ffffffffffffffffffffffffffffffffffffffff16815260200190815260200160002060010160009054906101000a900473ffffffffffffffffffffffffffffffffffffffff169050919050565b6001151560066000610cfa61282b565b73ffffffffffffffffffffffffffffffffffffffff1673ffffffffffffffffffffffffffffffffffffffff16815260200190815260200160002060009054906101000a900460ff16151514610d84576040517f08c379a0000000000000000000000000000000000000000000000000000000008152600401610d7b906142da565b60405180910390fd5b6000811415610dc8576040517f08c379a0000000000000000000000000000000000000000000000000000000008152600401610dbf9061419a565b60405180910390fd5b80600760008473ffffffffffffffffffffffffffffffffffffffff1673ffffffffffffffffffffffffffffffffffffffff168152602001908152602001600020600201819055507f611c3ff9423aa7344429ca0ba9eee448ce01f84064238a34627d8d1a0db5f0168282604051610e40929190613fb8565b60405180910390a15050565b6000600760008373ffffffffffffffffffffffffffffffffffffffff1673ffffffffffffffffffffffffffffffffffffffff16815260200190815260200160002060050160003373ffffffffffffffffffffffffffffffffffffffff1673ffffffffffffffffffffffffffffffffffffffff1681526020019081526020016000205411610f0e576040517f08c379a0000000000000000000000000000000000000000000000000000000008152600401610f059061431a565b60405180910390fd5b6000600760008373ffffffffffffffffffffffffffffffffffffffff1673ffffffffffffffffffffffffffffffffffffffff16815260200190815260200160002060060160003373ffffffffffffffffffffffffffffffffffffffff1673ffffffffffffffffffffffffffffffffffffffff168152602001908152602001600020541415610fd1576040517f08c379a0000000000000000000000000000000000000000000000000000000008152600401610fc8906141da565b60405180910390fd5b6000421415611015576040517f08c379a000000000000000000000000000000000000000000000000000000000815260040161100c906140da565b60405180910390fd5b61101f8133612c7f565b6000600760008373ffffffffffffffffffffffffffffffffffffffff1673ffffffffffffffffffffffffffffffffffffffff16815260200190815260200160002060050160003373ffffffffffffffffffffffffffffffffffffffff1673ffffffffffffffffffffffffffffffffffffffff1681526020019081526020016000205490506000600760008473ffffffffffffffffffffffffffffffffffffffff1673ffffffffffffffffffffffffffffffffffffffff16815260200190815260200160002060050160003373ffffffffffffffffffffffffffffffffffffffff1673ffffffffffffffffffffffffffffffffffffffff168152602001908152602001600020819055506000600760008473ffffffffffffffffffffffffffffffffffffffff1673ffffffffffffffffffffffffffffffffffffffff16815260200190815260200160002060060160003373ffffffffffffffffffffffffffffffffffffffff1673ffffffffffffffffffffffffffffffffffffffff1681526020019081526020016000208190555061120281600760008573ffffffffffffffffffffffffffffffffffffffff1673ffffffffffffffffffffffffffffffffffffffff168152602001908152602001600020600301546130ee90919063ffffffff16565b600760008473ffffffffffffffffffffffffffffffffffffffff1673ffffffffffffffffffffffffffffffffffffffff168152602001908152602001600020600301819055508173ffffffffffffffffffffffffffffffffffffffff1663a9059cbb33836040518363ffffffff1660e01b8152600401611283929190613fb8565b602060405180830381600087803b15801561129d57600080fd5b505af11580156112b1573d6000803e3d6000fd5b505050506040513d601f19601f820116820180604052508101906112d591906136a7565b507fddc3ac3e461767b9d8482222c5ac6e4bd6fa8c7f4e73c814f558e62eae724de4336040516113059190613f3d565b60405180910390a15050565b61131961282b565b73ffffffffffffffffffffffffffffffffffffffff166113376115fc565b73ffffffffffffffffffffffffffffffffffffffff161461138d576040517f08c379a00000000000000000000000000000000000000000000000000000000081526004016113849061421a565b60405180910390fd5b80600660008473ffffffffffffffffffffffffffffffffffffffff1673ffffffffffffffffffffffffffffffffffffffff16815260200190815260200160002060006101000a81548160ff0219169083151502179055505050565b6060600073ffffffffffffffffffffffffffffffffffffffff168273ffffffffffffffffffffffffffffffffffffffff16141561145a576040517f08c379a00000000000000000000000000000000000000000000000000000000081526004016114519061427a565b60405180910390fd5b600760008373ffffffffffffffffffffffffffffffffffffffff1673ffffffffffffffffffffffffffffffffffffffff16815260200190815260200160002060000180546114a790614612565b80601f01602080910402602001604051908101604052809291908181526020018280546114d390614612565b80156115205780601f106114f557610100808354040283529160200191611520565b820191906000526020600020905b81548152906001019060200180831161150357829003601f168201915b50505050509050919050565b60008060008373ffffffffffffffffffffffffffffffffffffffff1673ffffffffffffffffffffffffffffffffffffffff168152602001908152602001600020549050919050565b61157c61282b565b73ffffffffffffffffffffffffffffffffffffffff1661159a6115fc565b73ffffffffffffffffffffffffffffffffffffffff16146115f0576040517f08c379a00000000000000000000000000000000000000000000000000000000081526004016115e79061421a565b60405180910390fd5b6115fa6000613104565b565b6000600560009054906101000a900473ffffffffffffffffffffffffffffffffffffffff16905090565b600115156006600061163661282b565b73ffffffffffffffffffffffffffffffffffffffff1673ffffffffffffffffffffffffffffffffffffffff16815260200190815260200160002060009054906101000a900460ff161515146116c0576040517f08c379a00000000000000000000000000000000000000000000000000000000081526004016116b7906142da565b60405180910390fd5b600073ffffffffffffffffffffffffffffffffffffffff168273ffffffffffffffffffffffffffffffffffffffff161415611730576040517f08c379a00000000000000000000000000000000000000000000000000000000081526004016117279061427a565b60405180910390fd5b80600760008473ffffffffffffffffffffffffffffffffffffffff1673ffffffffffffffffffffffffffffffffffffffff16815260200190815260200160002060010160146101000a81548160ff0219169083151502179055507f0de9c5667496fd561ff9dfa59efdc1c76f7dbf3844adae3d14a3a14d563321b182826040516117bb929190613f8f565b60405180910390a15050565b6060600480546117d690614612565b80601f016020809104026020016040519081016040528092919081815260200182805461180290614612565b801561184f5780601f106118245761010080835404028352916020019161184f565b820191906000526020600020905b81548152906001019060200180831161183257829003601f168201915b5050505050905090565b60008073ffffffffffffffffffffffffffffffffffffffff168273ffffffffffffffffffffffffffffffffffffffff1614156118ca576040517f08c379a00000000000000000000000000000000000000000000000000000000081526004016118c19061427a565b60405180910390fd5b600760008373ffffffffffffffffffffffffffffffffffffffff1673ffffffffffffffffffffffffffffffffffffffff16815260200190815260200160002060010160149054906101000a900460ff169050919050565b6000806001600061193061282b565b73ffffffffffffffffffffffffffffffffffffffff1673ffffffffffffffffffffffffffffffffffffffff16815260200190815260200160002060008573ffffffffffffffffffffffffffffffffffffffff1673ffffffffffffffffffffffffffffffffffffffff168152602001908152602001600020549050828110156119ed576040517f08c379a00000000000000000000000000000000000000000000000000000000081526004016119e4906142fa565b60405180910390fd5b611a016119f861282b565b85858403612833565b600191505092915050565b6000600760008373ffffffffffffffffffffffffffffffffffffffff1673ffffffffffffffffffffffffffffffffffffffff16815260200190815260200160002060060160003373ffffffffffffffffffffffffffffffffffffffff1673ffffffffffffffffffffffffffffffffffffffff168152602001908152602001600020549050919050565b6000611aa9611aa261282b565b84846129fe565b6001905092915050565b600073ffffffffffffffffffffffffffffffffffffffff168273ffffffffffffffffffffffffffffffffffffffff161415611b23576040517f08c379a0000000000000000000000000000000000000000000000000000000008152600401611b1a9061427a565b60405180910390fd5b60001515600760008473ffffffffffffffffffffffffffffffffffffffff1673ffffffffffffffffffffffffffffffffffffffff16815260200190815260200160002060010160149054906101000a900460ff1615151415611bba576040517f08c379a0000000000000000000000000000000000000000000000000000000008152600401611bb19061409a565b60405180910390fd5b6000600760008473ffffffffffffffffffffffffffffffffffffffff1673ffffffffffffffffffffffffffffffffffffffff16815260200190815260200160002060050160003373ffffffffffffffffffffffffffffffffffffffff1673ffffffffffffffffffffffffffffffffffffffff16815260200190815260200160002054118015611cc857506000600760008473ffffffffffffffffffffffffffffffffffffffff1673ffffffffffffffffffffffffffffffffffffffff16815260200190815260200160002060060160003373ffffffffffffffffffffffffffffffffffffffff1673ffffffffffffffffffffffffffffffffffffffff16815260200190815260200160002054115b15611cd857611cd78233612c7f565b5b611d6a81600760008573ffffffffffffffffffffffffffffffffffffffff1673ffffffffffffffffffffffffffffffffffffffff16815260200190815260200160002060050160003373ffffffffffffffffffffffffffffffffffffffff1673ffffffffffffffffffffffffffffffffffffffff168152602001908152602001600020546131ca90919063ffffffff16565b600760008473ffffffffffffffffffffffffffffffffffffffff1673ffffffffffffffffffffffffffffffffffffffff16815260200190815260200160002060050160003373ffffffffffffffffffffffffffffffffffffffff1673ffffffffffffffffffffffffffffffffffffffff16815260200190815260200160002081905550611e4281600760008573ffffffffffffffffffffffffffffffffffffffff1673ffffffffffffffffffffffffffffffffffffffff168152602001908152602001600020600301546131ca90919063ffffffff16565b600760008473ffffffffffffffffffffffffffffffffffffffff1673ffffffffffffffffffffffffffffffffffffffff1681526020019081526020016000206003018190555042600760008473ffffffffffffffffffffffffffffffffffffffff1673ffffffffffffffffffffffffffffffffffffffff16815260200190815260200160002060060160003373ffffffffffffffffffffffffffffffffffffffff1673ffffffffffffffffffffffffffffffffffffffff168152602001908152602001600020819055508173ffffffffffffffffffffffffffffffffffffffff166323b872dd3330846040518463ffffffff1660e01b8152600401611f4993929190613f58565b602060405180830381600087803b158015611f6357600080fd5b505af1158015611f77573d6000803e3d6000fd5b505050506040513d601f19601f82011682018060405250810190611f9b91906136a7565b507f1fdab8a8457aaf782e4b6217d6ffa6f5006eda7e50922dd092b2e1524275d7743382604051611fcd929190613fb8565b60405180910390a15050565b6001151560066000611fe961282b565b73ffffffffffffffffffffffffffffffffffffffff1673ffffffffffffffffffffffffffffffffffffffff16815260200190815260200160002060009054906101000a900460ff16151514612073576040517f08c379a000000000000000000000000000000000000000000000000000000000815260040161206a906142da565b60405180910390fd5b600073ffffffffffffffffffffffffffffffffffffffff168373ffffffffffffffffffffffffffffffffffffffff1614156120e3576040517f08c379a00000000000000000000000000000000000000000000000000000000081526004016120da9061427a565b60405180910390fd5b600073ffffffffffffffffffffffffffffffffffffffff168173ffffffffffffffffffffffffffffffffffffffff161415612153576040517f08c379a000000000000000000000000000000000000000000000000000000000815260040161214a906142ba565b60405180910390fd5b600073ffffffffffffffffffffffffffffffffffffffff16600760008573ffffffffffffffffffffffffffffffffffffffff1673ffffffffffffffffffffffffffffffffffffffff16815260200190815260200160002060010160009054906101000a900473ffffffffffffffffffffffffffffffffffffffff1673ffffffffffffffffffffffffffffffffffffffff1614612224576040517f08c379a000000000000000000000000000000000000000000000000000000000815260040161221b9061429a565b60405180910390fd5b6000825111612268576040517f08c379a000000000000000000000000000000000000000000000000000000000815260040161225f906140fa565b60405180910390fd5b60001515600760008573ffffffffffffffffffffffffffffffffffffffff1673ffffffffffffffffffffffffffffffffffffffff16815260200190815260200160002060010160149054906101000a900460ff161515146122fe576040517f08c379a00000000000000000000000000000000000000000000000000000000081526004016122f5906141ba565b60405180910390fd5b6000600760008573ffffffffffffffffffffffffffffffffffffffff1673ffffffffffffffffffffffffffffffffffffffff1681526020019081526020016000206003015414612383576040517f08c379a000000000000000000000000000000000000000000000000000000000815260040161237a906141ba565b60405180910390fd5b81600760008573ffffffffffffffffffffffffffffffffffffffff1673ffffffffffffffffffffffffffffffffffffffff16815260200190815260200160002060000190805190602001906123d9929190613376565b5080600760008573ffffffffffffffffffffffffffffffffffffffff1673ffffffffffffffffffffffffffffffffffffffff16815260200190815260200160002060010160006101000a81548173ffffffffffffffffffffffffffffffffffffffff021916908373ffffffffffffffffffffffffffffffffffffffff1602179055506001600760008573ffffffffffffffffffffffffffffffffffffffff1673ffffffffffffffffffffffffffffffffffffffff16815260200190815260200160002060010160146101000a81548160ff0219169083151502179055506064600760008573ffffffffffffffffffffffffffffffffffffffff1673ffffffffffffffffffffffffffffffffffffffff1681526020019081526020016000206002018190555080600760008573ffffffffffffffffffffffffffffffffffffffff1673ffffffffffffffffffffffffffffffffffffffff16815260200190815260200160002060040160006101000a81548173ffffffffffffffffffffffffffffffffffffffff021916908373ffffffffffffffffffffffffffffffffffffffff1602179055506008839080600181540180825580915050600190039060005260206000200160009091909190916101000a81548173ffffffffffffffffffffffffffffffffffffffff021916908373ffffffffffffffffffffffffffffffffffffffff1602179055507f784c8f4dbf0ffedd6e72c76501c545a70f8b203b30a26ce542bf92ba87c248a4836040516126119190613f3d565b60405180910390a1505050565b606060088054806020026020016040519081016040528092919081815260200182805480156126a257602002820191906000526020600020905b8160009054906101000a900473ffffffffffffffffffffffffffffffffffffffff1673ffffffffffffffffffffffffffffffffffffffff1681526020019060010190808311612658575b5050505050905090565b6000600160008473ffffffffffffffffffffffffffffffffffffffff1673ffffffffffffffffffffffffffffffffffffffff16815260200190815260200160002060008373ffffffffffffffffffffffffffffffffffffffff1673ffffffffffffffffffffffffffffffffffffffff16815260200190815260200160002054905092915050565b61273b61282b565b73ffffffffffffffffffffffffffffffffffffffff166127596115fc565b73ffffffffffffffffffffffffffffffffffffffff16146127af576040517f08c379a00000000000000000000000000000000000000000000000000000000081526004016127a69061421a565b60405180910390fd5b600073ffffffffffffffffffffffffffffffffffffffff168173ffffffffffffffffffffffffffffffffffffffff16141561281f576040517f08c379a00000000000000000000000000000000000000000000000000000000081526004016128169061411a565b60405180910390fd5b61282881613104565b50565b600033905090565b600073ffffffffffffffffffffffffffffffffffffffff168373ffffffffffffffffffffffffffffffffffffffff1614156128a3576040517f08c379a000000000000000000000000000000000000000000000000000000000815260040161289a9061425a565b60405180910390fd5b600073ffffffffffffffffffffffffffffffffffffffff168273ffffffffffffffffffffffffffffffffffffffff161415612913576040517f08c379a000000000000000000000000000000000000000000000000000000000815260040161290a9061413a565b60405180910390fd5b80600160008573ffffffffffffffffffffffffffffffffffffffff1673ffffffffffffffffffffffffffffffffffffffff16815260200190815260200160002060008473ffffffffffffffffffffffffffffffffffffffff1673ffffffffffffffffffffffffffffffffffffffff168152602001908152602001600020819055508173ffffffffffffffffffffffffffffffffffffffff168373ffffffffffffffffffffffffffffffffffffffff167f8c5be1e5ebec7d5bd14f71427d1e84f3dd0314c0f7b2291e5b200ac8c7c3b925836040516129f1919061435a565b60405180910390a3505050565b600073ffffffffffffffffffffffffffffffffffffffff168373ffffffffffffffffffffffffffffffffffffffff161415612a6e576040517f08c379a0000000000000000000000000000000000000000000000000000000008152600401612a659061423a565b60405180910390fd5b600073ffffffffffffffffffffffffffffffffffffffff168273ffffffffffffffffffffffffffffffffffffffff161415612ade576040517f08c379a0000000000000000000000000000000000000000000000000000000008152600401612ad5906140ba565b60405180910390fd5b612ae98383836131e0565b60008060008573ffffffffffffffffffffffffffffffffffffffff1673ffffffffffffffffffffffffffffffffffffffff16815260200190815260200160002054905081811015612b6f576040517f08c379a0000000000000000000000000000000000000000000000000000000008152600401612b669061417a565b60405180910390fd5b8181036000808673ffffffffffffffffffffffffffffffffffffffff1673ffffffffffffffffffffffffffffffffffffffff16815260200190815260200160002081905550816000808573ffffffffffffffffffffffffffffffffffffffff1673ffffffffffffffffffffffffffffffffffffffff1681526020019081526020016000206000828254612c029190614446565b925050819055508273ffffffffffffffffffffffffffffffffffffffff168473ffffffffffffffffffffffffffffffffffffffff167fddf252ad1be2c89b69c2b068fc378daa952ba7f163c4a11628f55a4df523b3ef84604051612c66919061435a565b60405180910390a3612c798484846131e5565b50505050565b6000600760008473ffffffffffffffffffffffffffffffffffffffff1673ffffffffffffffffffffffffffffffffffffffff16815260200190815260200160002060050160008373ffffffffffffffffffffffffffffffffffffffff1673ffffffffffffffffffffffffffffffffffffffff1681526020019081526020016000205411612d41576040517f08c379a0000000000000000000000000000000000000000000000000000000008152600401612d389061431a565b60405180910390fd5b6000600760008473ffffffffffffffffffffffffffffffffffffffff1673ffffffffffffffffffffffffffffffffffffffff16815260200190815260200160002060060160008373ffffffffffffffffffffffffffffffffffffffff1673ffffffffffffffffffffffffffffffffffffffff168152602001908152602001600020541415612e04576040517f08c379a0000000000000000000000000000000000000000000000000000000008152600401612dfb906141da565b60405180910390fd5b6000600760008473ffffffffffffffffffffffffffffffffffffffff1673ffffffffffffffffffffffffffffffffffffffff16815260200190815260200160002060060160008373ffffffffffffffffffffffffffffffffffffffff1673ffffffffffffffffffffffffffffffffffffffff1681526020019081526020016000205442612e919190614527565b905060008111612ed6576040517f08c379a0000000000000000000000000000000000000000000000000000000008152600401612ecd9061415a565b60405180910390fd5b6000612f8c670de0b6b3a7640000612f7e600760008873ffffffffffffffffffffffffffffffffffffffff1673ffffffffffffffffffffffffffffffffffffffff16815260200190815260200160002060050160008773ffffffffffffffffffffffffffffffffffffffff1673ffffffffffffffffffffffffffffffffffffffff16815260200190815260200160002054612f7088610761565b6131ea90919063ffffffff16565b61320090919063ffffffff16565b9050600061301e600954613010856130026064612ff4600760008d73ffffffffffffffffffffffffffffffffffffffff1673ffffffffffffffffffffffffffffffffffffffff16815260200190815260200160002060020154896131ea90919063ffffffff16565b61320090919063ffffffff16565b6131ea90919063ffffffff16565b61320090919063ffffffff16565b905042600760008773ffffffffffffffffffffffffffffffffffffffff1673ffffffffffffffffffffffffffffffffffffffff16815260200190815260200160002060060160008673ffffffffffffffffffffffffffffffffffffffff1673ffffffffffffffffffffffffffffffffffffffff168152602001908152602001600020819055506130ae8482613216565b7f2cdd0b9dc1e55aa7be2d768970ec6e398da88b8e440c2798c748247ab578ddd784826040516130df929190613fb8565b60405180910390a15050505050565b600081836130fc9190614527565b905092915050565b6000600560009054906101000a900473ffffffffffffffffffffffffffffffffffffffff16905081600560006101000a81548173ffffffffffffffffffffffffffffffffffffffff021916908373ffffffffffffffffffffffffffffffffffffffff1602179055508173ffffffffffffffffffffffffffffffffffffffff168173ffffffffffffffffffffffffffffffffffffffff167f8be0079c531659141344cd1fd0a4f28419497f9722a3daafe3b4186f6b6457e060405160405180910390a35050565b600081836131d89190614446565b905092915050565b505050565b505050565b600081836131f891906144cd565b905092915050565b6000818361320e919061449c565b905092915050565b600073ffffffffffffffffffffffffffffffffffffffff168273ffffffffffffffffffffffffffffffffffffffff161415613286576040517f08c379a000000000000000000000000000000000000000000000000000000000815260040161327d9061433a565b60405180910390fd5b613292600083836131e0565b80600260008282546132a49190614446565b92505081905550806000808473ffffffffffffffffffffffffffffffffffffffff1673ffffffffffffffffffffffffffffffffffffffff16815260200190815260200160002060008282546132f99190614446565b925050819055508173ffffffffffffffffffffffffffffffffffffffff16600073ffffffffffffffffffffffffffffffffffffffff167fddf252ad1be2c89b69c2b068fc378daa952ba7f163c4a11628f55a4df523b3ef8360405161335e919061435a565b60405180910390a3613372600083836131e5565b5050565b82805461338290614612565b90600052602060002090601f0160209004810192826133a457600085556133eb565b82601f106133bd57805160ff19168380011785556133eb565b828001600101855582156133eb579182015b828111156133ea5782518255916020019190600101906133cf565b5b5090506133f891906133fc565b5090565b5b808211156134155760008160009055506001016133fd565b5090565b600061342c613427846143c1565b614390565b90508281526020810184848401111561344457600080fd5b61344f8482856145d0565b509392505050565b60008135905061346681614711565b92915050565b60008135905061347b81614728565b92915050565b60008151905061349081614728565b92915050565b6000815190506134a58161473f565b92915050565b600082601f8301126134bc57600080fd5b81356134cc848260208601613419565b91505092915050565b6000813590506134e481614756565b92915050565b6000815190506134f981614756565b92915050565b60008151905061350e8161476d565b92915050565b60006020828403121561352657600080fd5b600061353484828501613457565b91505092915050565b6000806040838503121561355057600080fd5b600061355e85828601613457565b925050602061356f85828601613457565b9150509250929050565b60008060006060848603121561358e57600080fd5b600061359c86828701613457565b93505060206135ad86828701613457565b92505060406135be868287016134d5565b9150509250925092565b600080604083850312156135db57600080fd5b60006135e985828601613457565b92505060206135fa8582860161346c565b9150509250929050565b60008060006060848603121561361957600080fd5b600061362786828701613457565b935050602084013567ffffffffffffffff81111561364457600080fd5b613650868287016134ab565b925050604061366186828701613457565b9150509250925092565b6000806040838503121561367e57600080fd5b600061368c85828601613457565b925050602061369d858286016134d5565b9150509250929050565b6000602082840312156136b957600080fd5b60006136c784828501613481565b91505092915050565b600080600080600060a086880312156136e857600080fd5b60006136f6888289016134ff565b955050602061370788828901613496565b9450506040613718888289016134ea565b9350506060613729888289016134ea565b925050608061373a888289016134ff565b9150509295509295909350565b6000613753838361375f565b60208301905092915050565b6137688161455b565b82525050565b6137778161455b565b82525050565b600061378882614401565b6137928185614424565b935061379d836143f1565b8060005b838110156137ce5781516137b58882613747565b97506137c083614417565b9250506001810190506137a1565b5085935050505092915050565b6137e48161456d565b82525050565b60006137f58261440c565b6137ff8185614435565b935061380f8185602086016145df565b61381881614700565b840191505092915050565b6000613830601f83614435565b91507f5374616b65206f66207468697320746f6b656e2069732064697361626c6564006000830152602082019050919050565b6000613870602383614435565b91507f45524332303a207472616e7366657220746f20746865207a65726f206164647260008301527f65737300000000000000000000000000000000000000000000000000000000006020830152604082019050919050565b60006138d6601583614435565b91507f74696d657374616d70206973206e6f74207a65726f00000000000000000000006000830152602082019050919050565b6000613916601a83614435565b91507f746f6b656e206e616d652063616e6e6f7420626520656d7074790000000000006000830152602082019050919050565b6000613956602683614435565b91507f4f776e61626c653a206e6577206f776e657220697320746865207a65726f206160008301527f64647265737300000000000000000000000000000000000000000000000000006020830152604082019050919050565b60006139bc602283614435565b91507f45524332303a20617070726f766520746f20746865207a65726f20616464726560008301527f73730000000000000000000000000000000000000000000000000000000000006020830152604082019050919050565b6000613a22601e83614435565b91507f7374616b652074696d65206973206e65676174697665206f72207a65726f00006000830152602082019050919050565b6000613a62602683614435565b91507f45524332303a207472616e7366657220616d6f756e742065786365656473206260008301527f616c616e636500000000000000000000000000000000000000000000000000006020830152604082019050919050565b6000613ac8601183614435565b91507f726174696f2063616e6e6f7420626520300000000000000000000000000000006000830152602082019050919050565b6000613b08601683614435565b91507f63616e6e6f742061646420746f6b656e207477696365000000000000000000006000830152602082019050919050565b6000613b48601983614435565b91507f4e6f207374616b65206461746520726567697374657265642e000000000000006000830152602082019050919050565b6000613b88602883614435565b91507f45524332303a207472616e7366657220616d6f756e742065786365656473206160008301527f6c6c6f77616e63650000000000000000000000000000000000000000000000006020830152604082019050919050565b6000613bee602083614435565b91507f4f776e61626c653a2063616c6c6572206973206e6f7420746865206f776e65726000830152602082019050919050565b6000613c2e602583614435565b91507f45524332303a207472616e736665722066726f6d20746865207a65726f20616460008301527f64726573730000000000000000000000000000000000000000000000000000006020830152604082019050919050565b6000613c94602483614435565b91507f45524332303a20617070726f76652066726f6d20746865207a65726f2061646460008301527f72657373000000000000000000000000000000000000000000000000000000006020830152604082019050919050565b6000613cfa602383614435565b91507f746f6b656e2077697468207a65726f2061646472657373206e6f7420616c6c6f60008301527f77656400000000000000000000000000000000000000000000000000000000006020830152604082019050919050565b6000613d60601683614435565b91507f746f6b656e20616c7265616479206578697374696e67000000000000000000006000830152602082019050919050565b6000613da0602383614435565b91507f61676772656761746f722063616e6e6f742062652061207a65726f206164647260008301527f65737300000000000000000000000000000000000000000000000000000000006020830152604082019050919050565b6000613e06601883614435565b91507f43616c6c6572206973206e6f742070726976696c6567656400000000000000006000830152602082019050919050565b6000613e46602583614435565b91507f45524332303a2064656372656173656420616c6c6f77616e63652062656c6f7760008301527f207a65726f0000000000000000000000000000000000000000000000000000006020830152604082019050919050565b6000613eac601083614435565b91507f4e6f207374616b656420746f6b656e2e000000000000000000000000000000006000830152602082019050919050565b6000613eec601f83614435565b91507f45524332303a206d696e7420746f20746865207a65726f2061646472657373006000830152602082019050919050565b613f28816145a3565b82525050565b613f37816145ad565b82525050565b6000602082019050613f52600083018461376e565b92915050565b6000606082019050613f6d600083018661376e565b613f7a602083018561376e565b613f876040830184613f1f565b949350505050565b6000604082019050613fa4600083018561376e565b613fb160208301846137db565b9392505050565b6000604082019050613fcd600083018561376e565b613fda6020830184613f1f565b9392505050565b60006020820190508181036000830152613ffb818461377d565b905092915050565b600060208201905061401860008301846137db565b92915050565b6000602082019050818103600083015261403881846137ea565b905092915050565b600060a082019050818103600083015261405a81886137ea565b9050614069602083018761376e565b61407660408301866137db565b6140836060830185613f1f565b6140906080830184613f1f565b9695505050505050565b600060208201905081810360008301526140b381613823565b9050919050565b600060208201905081810360008301526140d381613863565b9050919050565b600060208201905081810360008301526140f3816138c9565b9050919050565b6000602082019050818103600083015261411381613909565b9050919050565b6000602082019050818103600083015261413381613949565b9050919050565b60006020820190508181036000830152614153816139af565b9050919050565b6000602082019050818103600083015261417381613a15565b9050919050565b6000602082019050818103600083015261419381613a55565b9050919050565b600060208201905081810360008301526141b381613abb565b9050919050565b600060208201905081810360008301526141d381613afb565b9050919050565b600060208201905081810360008301526141f381613b3b565b9050919050565b6000602082019050818103600083015261421381613b7b565b9050919050565b6000602082019050818103600083015261423381613be1565b9050919050565b6000602082019050818103600083015261425381613c21565b9050919050565b6000602082019050818103600083015261427381613c87565b9050919050565b6000602082019050818103600083015261429381613ced565b9050919050565b600060208201905081810360008301526142b381613d53565b9050919050565b600060208201905081810360008301526142d381613d93565b9050919050565b600060208201905081810360008301526142f381613df9565b9050919050565b6000602082019050818103600083015261431381613e39565b9050919050565b6000602082019050818103600083015261433381613e9f565b9050919050565b6000602082019050818103600083015261435381613edf565b9050919050565b600060208201905061436f6000830184613f1f565b92915050565b600060208201905061438a6000830184613f2e565b92915050565b6000604051905081810181811067ffffffffffffffff821117156143b7576143b66146d1565b5b8060405250919050565b600067ffffffffffffffff8211156143dc576143db6146d1565b5b601f19601f8301169050602081019050919050565b6000819050602082019050919050565b600081519050919050565b600081519050919050565b6000602082019050919050565b600082825260208201905092915050565b600082825260208201905092915050565b6000614451826145a3565b915061445c836145a3565b9250827fffffffffffffffffffffffffffffffffffffffffffffffffffffffffffffffff0382111561449157614490614644565b5b828201905092915050565b60006144a7826145a3565b91506144b2836145a3565b9250826144c2576144c1614673565b5b828204905092915050565b60006144d8826145a3565b91506144e3836145a3565b9250817fffffffffffffffffffffffffffffffffffffffffffffffffffffffffffffffff048311821515161561451c5761451b614644565b5b828202905092915050565b6000614532826145a3565b915061453d836145a3565b9250828210156145505761454f614644565b5b828203905092915050565b600061456682614583565b9050919050565b60008115159050919050565b6000819050919050565b600073ffffffffffffffffffffffffffffffffffffffff82169050919050565b6000819050919050565b600060ff82169050919050565b600069ffffffffffffffffffff82169050919050565b82818337600083830152505050565b60005b838110156145fd5780820151818401526020810190506145e2565b8381111561460c576000848401525b50505050565b6000600282049050600182168061462a57607f821691505b6020821081141561463e5761463d6146a2565b5b50919050565b7f4e487b7100000000000000000000000000000000000000000000000000000000600052601160045260246000fd5b7f4e487b7100000000000000000000000000000000000000000000000000000000600052601260045260246000fd5b7f4e487b7100000000000000000000000000000000000000000000000000000000600052602260045260246000fd5b7f4e487b7100000000000000000000000000000000000000000000000000000000600052604160045260246000fd5b6000601f19601f8301169050919050565b61471a8161455b565b811461472557600080fd5b50565b6147318161456d565b811461473c57600080fd5b50565b61474881614579565b811461475357600080fd5b50565b61475f816145a3565b811461476a57600080fd5b50565b614776816145ba565b811461478157600080fd5b5056fea26469706673582212206a6357d38e1e469dcab3e66f758d86fec5cbcb997f6194c218c7ecbd91d56f5464736f6c63430008000033",
  "immutableReferences": {},
  "source": "// SPDX-License-Identifier: MIT\r\npragma solidity ^0.8.0;\r\n\r\nimport \"@openzeppelin/contracts/token/ERC20/ERC20.sol\";\r\nimport '@openzeppelin/contracts/token/ERC20/IERC20.sol';\r\nimport \"@openzeppelin/contracts/access/Ownable.sol\";\r\nimport \"@openzeppelin/contracts/utils/math/SafeMath.sol\";\r\nimport \"@chainlink/contracts/src/v0.8/interfaces/AggregatorV3Interface.sol\";\r\n\r\ncontract SovStake is ERC20, Ownable {\r\n    struct stakableToken {\r\n        string name;\r\n        address aggregator;\r\n        bool enabled;\r\n        uint apr;\r\n        uint tvl;\r\n        AggregatorV3Interface priceFeed;\r\n        mapping(address => uint) stakers;\r\n        mapping(address => uint) stakersDate;\r\n    }\r\n    mapping(address => bool) private privileged;\r\n    mapping(address => stakableToken) private stakeTokens;\r\n    address[] private tokenArray;\r\n\r\n    uint private nbsecyear;\r\n\r\n    event TokenStaked(address staker, uint quantity);\r\n    event TokenWithdrawn(address staker);\r\n    event TokenAdded(address token);\r\n    event TokenStatusChanged(address token, bool enabled);\r\n    event APRChanged(address token, uint apr);\r\n    event RewardsSent(address staker, uint rewards);\r\n\r\n    using SafeMath for uint;\r\n\r\n    constructor() ERC20(\"SovToken\", \"SOV\") {\r\n        //_mint(msg.sender, 21000000000000000000000000);\r\n        privileged[owner()] = true;\r\n        nbsecyear=365*24*60*60;\r\n    }\r\n\r\n    function addStakableToken(address token, string memory name, address aggregator) public onlyPrivileged {\r\n        require(token != address(0), \"token with zero address not allowed\");\r\n        require(aggregator != address(0), \"aggregator cannot be a zero address\");\r\n        require(stakeTokens[token].aggregator == address(0), \"token already existing\");\r\n        require(bytes(name).length > 0, \"token name cannot be empty\");\r\n        require(stakeTokens[token].enabled == false, \"cannot add token twice\");\r\n        require(stakeTokens[token].tvl == 0, \"cannot add token twice\");\r\n\r\n        stakeTokens[token].name = name;\r\n        stakeTokens[token].aggregator = aggregator;\r\n        stakeTokens[token].enabled = true;\r\n        stakeTokens[token].apr = 100;\r\n        stakeTokens[token].priceFeed = AggregatorV3Interface(aggregator);\r\n\r\n        tokenArray.push(token);\r\n\r\n        emit TokenAdded(token);\r\n    }\r\n\r\n    function updateTokenStatus(address token, bool status) public onlyPrivileged {\r\n        require(token != address(0), \"token with zero address not allowed\");\r\n        stakeTokens[token].enabled = status;\r\n        emit TokenStatusChanged(token, status);\r\n    }\r\n\r\n    function getTokenArray()public view returns( address  [] memory){\r\n        return tokenArray;\r\n    }\r\n\r\n    function getTokenName(address token) public view returns (string memory) {\r\n        require(token != address(0), \"token with zero address not allowed\");\r\n        return stakeTokens[token].name;\r\n    }\r\n\r\n    function getTokenStatus(address token) public view returns (bool) {\r\n        require(token != address(0), \"token with zero address not allowed\");\r\n        return stakeTokens[token].enabled;\r\n    }\r\n    function getTokenAggregator(address token) public view returns (address) {\r\n        require(token != address(0), \"token with zero address not allowed\");\r\n        return stakeTokens[token].aggregator;\r\n    }\r\n\r\n    function getAPR(address token) public view returns(uint){\r\n        return stakeTokens[token].apr;\r\n    }\r\n\r\n    function getTokenInfo(address token) public view returns (string memory name, address aggregator, bool enabled, uint apr, uint tvl) {\r\n        stakableToken storage t = stakeTokens[token];\r\n        return (t.name, t.aggregator, t.enabled, t.apr, t.tvl);\r\n    }\r\n\r\n    function setAPR(address token, uint value) public onlyPrivileged {\r\n        require(value != 0, \"ratio cannot be 0\");\r\n        stakeTokens[token].apr = value;\r\n        emit APRChanged(token, value);\r\n    }\r\n\r\n    function getStakeDate(address token) public view  returns (uint) {\r\n        return stakeTokens[token].stakersDate[msg.sender];\r\n    }\r\n\r\n    function stake(address token, uint quantity) public {\r\n        require(token != address(0), \"token with zero address not allowed\");\r\n        require(stakeTokens[token].enabled != false, \"Stake of this token is disabled\");\r\n\r\n        if (stakeTokens[token].stakers[msg.sender] > 0 && stakeTokens[token].stakersDate[msg.sender] > 0) {\r\n            computeRewards(token, msg.sender);\r\n        }\r\n        stakeTokens[token].stakers[msg.sender] = stakeTokens[token].stakers[msg.sender].add(quantity);\r\n        stakeTokens[token].tvl = stakeTokens[token].tvl.add(quantity);\r\n        stakeTokens[token].stakersDate[msg.sender] = block.timestamp;\r\n        ERC20(token).transferFrom(msg.sender, address(this), quantity);\r\n        emit TokenStaked(msg.sender, quantity);\r\n    }\r\n\r\n    function withdraw(address token) public {\r\n        require(stakeTokens[token].stakers[msg.sender] > 0, \"No staked token.\");\r\n        require(stakeTokens[token].stakersDate[msg.sender] != 0, \"No stake date registered.\");\r\n        require(block.timestamp != 0, \"timestamp is not zero\");\r\n        \r\n        computeRewards(token, msg.sender);\r\n        uint quantity = stakeTokens[token].stakers[msg.sender];\r\n        stakeTokens[token].stakers[msg.sender] = 0;\r\n        stakeTokens[token].stakersDate[msg.sender] = 0;\r\n        stakeTokens[token].tvl = stakeTokens[token].tvl.sub(quantity);\r\n        ERC20(token).transfer(msg.sender, quantity);        \r\n        emit TokenWithdrawn(msg.sender);\r\n    }\r\n\r\n    function computeRewards(address token, address staker) private {\r\n        require(stakeTokens[token].stakers[staker] > 0, \"No staked token.\");\r\n        require(stakeTokens[token].stakersDate[staker] != 0, \"No stake date registered.\");\r\n\r\n        uint stakeTime = block.timestamp - stakeTokens[token].stakersDate[staker];\r\n        require (stakeTime > 0, \"stake time is negative or zero\");\r\n\r\n        uint stakeAmount = (getLatestPrice(token).mul(stakeTokens[token].stakers[staker])).div(1000000000000000000);\r\n        uint rewards = ((stakeAmount.mul(stakeTokens[token].apr).div(100)).mul(stakeTime)).div(nbsecyear);\r\n\r\n        stakeTokens[token].stakersDate[staker] = block.timestamp;\r\n        _mint(staker, rewards);\r\n        emit RewardsSent(staker, rewards);\r\n    }\r\n\r\n    function getTVL(address token) public view returns (uint) {\r\n        return stakeTokens[token].tvl;\r\n    }   \r\n\r\n    function getMyTVL(address token) public view returns (uint) {\r\n        return stakeTokens[token].stakers[msg.sender];\r\n    }   \r\n\r\n    function updatePrivileged(address account, bool enabled) public onlyOwner {\r\n        privileged[account] = enabled;\r\n    }\r\n\r\n    modifier onlyPrivileged() {\r\n        require(privileged[_msgSender()] == true, \"Caller is not privileged\");\r\n        _;\r\n    }\r\n\r\n    // Return latest price of Token in ETH\r\n    function getLatestPrice(address token) public view returns (uint) {\r\n        (\r\n            /*uint80 roundID*/,\r\n            int price,\r\n            /*uint startedAt*/,\r\n            /*uint timeStamp*/,\r\n            /*uint80 answeredInRound*/\r\n        ) = stakeTokens[token].priceFeed.latestRoundData();        \r\n \r\n        return uint(price);\r\n    }\r\n}",
  "sourcePath": "C:\\Users\\chris\\git\\sovstake\\contracts\\SovStake.sol",
  "compiler": {
    "name": "solc",
    "version": "0.8.0+commit.c7dfd78e.Emscripten.clang"
  },
  "schemaVersion": "3.4.4",
  "updatedAt": "2022-04-03T14:26:43.998Z",
  "networkType": "ethereum",
  "devdoc": {
    "kind": "dev",
    "methods": {
      "allowance(address,address)": {
        "details": "See {IERC20-allowance}."
      },
      "approve(address,uint256)": {
        "details": "See {IERC20-approve}. Requirements: - `spender` cannot be the zero address."
      },
      "balanceOf(address)": {
        "details": "See {IERC20-balanceOf}."
      },
      "decimals()": {
        "details": "Returns the number of decimals used to get its user representation. For example, if `decimals` equals `2`, a balance of `505` tokens should be displayed to a user as `5.05` (`505 / 10 ** 2`). Tokens usually opt for a value of 18, imitating the relationship between Ether and Wei. This is the value {ERC20} uses, unless this function is overridden; NOTE: This information is only used for _display_ purposes: it in no way affects any of the arithmetic of the contract, including {IERC20-balanceOf} and {IERC20-transfer}."
      },
      "decreaseAllowance(address,uint256)": {
        "details": "Atomically decreases the allowance granted to `spender` by the caller. This is an alternative to {approve} that can be used as a mitigation for problems described in {IERC20-approve}. Emits an {Approval} event indicating the updated allowance. Requirements: - `spender` cannot be the zero address. - `spender` must have allowance for the caller of at least `subtractedValue`."
      },
      "increaseAllowance(address,uint256)": {
        "details": "Atomically increases the allowance granted to `spender` by the caller. This is an alternative to {approve} that can be used as a mitigation for problems described in {IERC20-approve}. Emits an {Approval} event indicating the updated allowance. Requirements: - `spender` cannot be the zero address."
      },
      "name()": {
        "details": "Returns the name of the token."
      },
      "owner()": {
        "details": "Returns the address of the current owner."
      },
      "renounceOwnership()": {
        "details": "Leaves the contract without owner. It will not be possible to call `onlyOwner` functions anymore. Can only be called by the current owner. NOTE: Renouncing ownership will leave the contract without an owner, thereby removing any functionality that is only available to the owner."
      },
      "symbol()": {
        "details": "Returns the symbol of the token, usually a shorter version of the name."
      },
      "totalSupply()": {
        "details": "See {IERC20-totalSupply}."
      },
      "transfer(address,uint256)": {
        "details": "See {IERC20-transfer}. Requirements: - `recipient` cannot be the zero address. - the caller must have a balance of at least `amount`."
      },
      "transferFrom(address,address,uint256)": {
        "details": "See {IERC20-transferFrom}. Emits an {Approval} event indicating the updated allowance. This is not required by the EIP. See the note at the beginning of {ERC20}. Requirements: - `sender` and `recipient` cannot be the zero address. - `sender` must have a balance of at least `amount`. - the caller must have allowance for ``sender``'s tokens of at least `amount`."
      },
      "transferOwnership(address)": {
        "details": "Transfers ownership of the contract to a new account (`newOwner`). Can only be called by the current owner."
      }
    },
    "version": 1
  },
  "userdoc": {
    "kind": "user",
    "methods": {},
    "version": 1
  }
}